:020000040800F2
:100000008809002029020008D5250008E5220008FB
:10001000D12500081F040008312E00080000000050
:10002000000000000000000000000000D9250008CA
:10003000A305000800000000D7250008DB25000804
:10004000430200084302000843020008430200087C
:10005000430200084302000843020008430200086C
:10006000430200084302000843020008430200085C
:10007000430200084302000843020008430200084C
:10008000430200084302000843020008430200083C
:100090002504000843020008430200084302000848
:1000A00043020008FD26000843020008430200083E
:1000B000430200084302000843020008430200080C
:1000C00043020008430200084302000843020008FC
:1000D00043020008DD2C0008430200084302000828
:1000E00043020008430200084302000843020008DC
:1000F00043020008430200084302000843020008CC
:1001000043020008430200084302000843020008BB
:1001100043020008430200084302000843020008AB
:10012000430200084302000843020008430200089B
:10013000430200084302000843020008430200088B
:10014000430200084302000843020008430200087B
:10015000430200084302000843020008212E000861
:10016000430200084302000843020008430200085B
:100170004302000843020008430200080000000098
:10018000430200084302000800F002F800F03CF8C7
:100190000AA090E8000C82448344AAF10107DA45E2
:1001A00001D100F031F8AFF2090EBAE80F0013F0F8
:1001B000010F18BFFB1A43F0010318473437000042
:1001C00054370000103A24BF78C878C1FAD85207D3
:1001D00024BF30C830C144BF04680C6070470000C1
:1001E0000023002400250026103A28BF78C1FBD840
:1001F000520728BF30C148BF0B6070471FB503F0DE
:1002000061FB1FBD10B510BD00F0D4F81146FFF71B
:10021000F5FF02F05FFE00F0F2F803B4FFF7F2FF23
:1002200003BC00F0F5F80000094880470948004782
:10023000FEE7FEE7FEE7FEE7FEE7FEE7FEE7FEE796
:10024000FEE7FEE704480549054A064B70470000F3
:1002500099260008890100088803002088090020E9
:10026000880500208805002053EA020C00F0698010
:100270002DE9F04B4FF00006002B1FBFB3FA83F5BA
:1002800003FA05F424FA05F65E4012BF1643B2FAEB
:1002900082F502FA05F4C5F120051EBF22FA05FC1D
:1002A00044EA0C04203556EA044C4FEA144418BFC3
:1002B000641C4FF000084FF00009904271EB030CF2
:1002C00039D3002919BFB1FA81F701FA07F6B0FA5C
:1002D00080F700FA07F6C7F120071EBF20FA07FCD7
:1002E00046EA0C062037B6FBF4FCA7EB0507103FE7
:1002F00007F01F0BCBF120060CFA0BFB2CFA06F6CD
:1003000044BFB3460026202FA4BF5E464FF0000B2B
:100310005BEA060C08BF4FF0010B19EB0B09ABFBB6
:10032000027C48EB0608C01B06FB02CC0BFB03CC8F
:1003300071EB0C01C1E70B46024641464846BDE859
:10034000F08B13B54FF000004FF00001AFF30080C9
:10035000BDE81C4070474FF0000200B513469446BC
:100360009646203922BFA0E80C50A0E80C50B1F10D
:100370002001BFF4F7AF090728BFA0E80C5048BF21
:100380000CC05DF804EB890028BF40F8042B08BFBF
:10039000704748BF20F8022B11F0804F18BF00F8BB
:1003A000012B704770477047704700000048704746
:1003B000240300207546FFF7F9FFAE4605006946A5
:1003C000534620F00700854618B020B5FFF73AFFE6
:1003D000BDE820404FF000064FF000074FF0000846
:1003E0004FF0000B21F00701AC46ACE8C009ACE8C7
:1003F000C009ACE8C009ACE8C0098D46704710B52B
:100400000446AFF300802046BDE81040FFF705BF6B
:1004100001491820ABBEFEE726000200704700BF6E
:10042000FEE7000010B5024800F0B6FA10BD00006B
:1004300084000020F8B504460D4616461F463220BB
:100440001249086000208860C86008200861200AFE
:100450000F4908704C70280A8870CD70300A0871F6
:100460004E71380A8871CF716B460A4607490948B0
:1004700000F0ABF808B10120F8BD00BF054800F05E
:1004800072FA0328FAD10020F6E700000C030020DE
:100490006C0000208400002008B540F205101149CE
:1004A000086000208860C8600820086102200E49AA
:1004B000087048708870C870087148718871C87178
:1004C0006B460A460749094800F07FF808B1012049
:1004D00008BD00BF054800F046FA0328FAD1002005
:1004E000F6E700000C0300206C00002084000020D0
:1004F00001680A4BCAB2103AA3FB02321209084B38
:100500009B5CC365032A04D96FF30901091D81654A
:1005100002E06FF309018165806D7047ABAAAAAA5A
:10052000E6380008014600208A6A8B69002B0FD04C
:10053000B3F5005F1DD08AB3012A30D0022A2ED035
:10054000032A04D1C96A11F0807F00D001207047CE
:100550001AB1012A07D0022AF9D1C96A11F0807FA5
:10056000F5D001207047C96AB1F1C07FFAD10120EE
:1005700070475AB1012A0BD0022A07D0032AF7D1BB
:10058000C96AB1F1C07FF3D10120704701207047E3
:10059000C96A11F0807FFAD001207047FFE701207F
:1005A00070477047704790F82020012A07D0022A30
:1005B00005D0416A41F48021416201207047006802
:1005C0004269114341610020704770B490F82040A7
:1005D000D0F800C0DCF808C0012C08D0022C06D0EE
:1005E000416A41F48021416270BC012070470CF0E7
:1005F00080640CF000652C4302D11CF0805F5FD05A
:10060000CCF3016CBCF1020F06D9416A41F4000140
:10061000416270BC01207047012404FA0CF41C6094
:100620008B684FF4C0749BB1CD6804EB0C162B4360
:100630004D6843EAC5030568AB514FF4C2730668C1
:1006400003EB0C130D69F550097D012909D00DE06C
:100650000D88CB6804EB0C1643EA45530568AB5193
:10066000EBE70168CD5845F48075CD501179D37909
:10067000557941EA036193791B0443EA0523194341
:100680004FF4C675036805EB0C1559511178D378F2
:1006900041EA0361937852781B0443EA0222114332
:1006A0004FF4C473026803EB0C13D150016804EBE0
:1006B0000C100A5842F001020A5070BC002070472A
:1006C000416A41F40011416270BC01207047000092
:1006D00090F82020012A07D0022A05D0416A41F46F
:1006E00080214162012070474248D0F8002242F048
:1006F0000102C0F80022D0F8002222F47C52C0F897
:100700000022D0F800224B6A42EA0322C0F80022FD
:100710000A7D012302F01F0203FA02F2D0F81C3214
:100720009343C0F81C32CB69D3B9D0F80C32934351
:10073000C0F80C32B1F80CC04B686CF31F43D1F811
:1007400014C000EBCC0CCCF84032B1F808C00B68F8
:100750006CF31F43D1F814C000EBCC0CCCF844323E
:10076000CB69012B1AD1D0F80C321343C0F80C32EC
:10077000B1F800C04B686CF31F43D1F814C000EB14
:10078000CC0CCCF84032B1F808C0CB686CF31F43F6
:10079000D1F814C000EBCC0CCCF844328B697BB19F
:1007A000D0F804321343C0F804320B6973B1D0F8A7
:1007B00014321343C0F81432096A01290CD010E036
:1007C000D0F804329343C0F80432EEE7D0F8143284
:1007D0009343C0F81432EFE7D0F81C121143C0F86D
:1007E0001C12D0F8001221F00101C0F80012002004
:1007F0007047000000640040704710B490F820C0BB
:10080000BCF1010F09D0BCF1020F06D0416A41F4DE
:100810008021416210BC0120704739B1D0F800C07E
:10082000DCF810C01CF0030F7DD006E0D0F800C04B
:10083000DCF80CC01CF0030F7BD04FF4D87C0468AC
:100840000CEB011C54F80C4004F004049460002CE0
:100850007DD0046854F80C40E4085460046854F8EF
:100860000CC0CCF3400CC2F80CC04FF4DA7C046826
:100870000CEB011C54F80C4004F00F0414610468E4
:1008800054F80C40C4F307249461046854F80CC075
:100890004FEA1C4CC2F814C04FF4DC72D0F800C010
:1008A00002EB01125CF802C083F800C0D0F800C06F
:1008B0005CF802C04FEA1C2C83F801C0D0F800C0DD
:1008C0005CF802C04FEA1C4C83F802C0D0F800C0AC
:1008D0005CF80220120EDA704FF4DE72D0F800C01D
:1008E00002EB01125CF802C083F804C0D0F800C02B
:1008F0005CF802C04FEA1C2C83F805C0D0F800C099
:100900005CF802C04FEA1C4C83F806C0D0F800C067
:100910005CF80220120EDA71F9B10068016941F049
:100920002001016102E00BE003E010E010BC0020B8
:100930007047416A41F40011416210BC01207047C8
:10094000416A41F40011416210BC01207047046803
:1009500054F80C40640D146080E70068C16841F0F1
:100960002001C160DEE70246002092F82010012934
:1009700001D002290FD111688A6812F0806F00D06F
:1009800001208A6812F0006F00D0401C896811F0C5
:10099000805F00D0401C70472DE9F05F05460024C1
:1009A00028684669D0F804908768D0F80CA0D0F881
:1009B00010B0D0F8188016F0010F54D017F0010FC6
:1009C00017D00121816017F0020F03D0284600F0F4
:1009D00099FA0EE017F0040F02D04FF4006408E01B
:1009E00017F0080F02D04FF4805402E0284600F0C0
:1009F00088FA17F4807F19D029684FF480708860D6
:100A000017F4007F03D0284600F07EFA0EE017F4BA
:100A1000806F02D044F4005408E017F4006F02D055
:100A200044F4804402E0284600F06DFA17F4803F59
:100A300019D029684FF48030886017F4003F03D044
:100A4000284600F063FA0EE017F4802F02D044F439
:100A5000004408E017F4002F02D044F4803402E090
:100A6000284600F052FA16F0080F07D01AF0100FBF
:100A700004D044F4007429681020C86016F0040FF4
:100A80004FF0080707D01AF0080F04D02868C76095
:100A9000284600F09BF916F0020F07D02868C068BE
:100AA00010F0030F02D0284600F092F916F0400F24
:100AB00007D01BF0100F04D044F480642968102084
:100AC000086116F0200F07D01BF0080F04D028682B
:100AD0000761284600F0E0F916F0100F07D02868EB
:100AE000006910F0030F02D0284600F0D6F916F482
:100AF000003F08D019F0100F05D029681020486079
:100B0000284600F0CBF916F4803F07D019F0080F03
:100B100004D028684760284600F0F9F916F4004F21
:100B20004AD019F0040F44D016F4807F04D018F096
:100B3000010F01D044F0010416F4007F04D018F036
:100B4000020F01D044F0020416F4806F04D018F0B4
:100B5000040F01D044F0040416F4006F29D018F0FB
:100B6000700F26D008F07000402815D006DC102841
:100B700009D020280AD0302816D10AE050280ED0FB
:100B8000602811D10EE044F008040DE044F0100498
:100B90000AE044F0200407E044F0400404E044F09C
:100BA000800401E044F480742868816921F07001B8
:100BB0008161296804204860002C05D0686A2043C0
:100BC00068622846FFF718FEBDE8F09F70B504463E
:100BD000002C03D094F8200010B104E0012070BD77
:100BE000204600F0A7F82068016821F002010160AA
:100BF00000F040FB0546206840684FF0050610F005
:100C0000020F11D000F036FB401B0A2807D9606A9A
:100C100040F40030606284F82060012070BD2068DC
:100C2000406810F0020FEDD12068016841F0010129
:100C3000016000F01FFB05462068406810F0010FBE
:100C400011D100F017FB401B0A2807D9606A40F455
:100C50000030606284F82060012070BD2068406828
:100C600010F0010FEDD0207E01283FD020680168F0
:100C700021F080010160607E01283DD0206801687C
:100C800021F040010160A07E01283BD0206801686E
:100C900021F020010160E07E012839D02068016840
:100CA00041F010010160207F012837D020680168E1
:100CB00021F008010160607F012835D020680168BB
:100CC00021F004010160E168A068626908432169BC
:100CD000114308436168491E08432168C861002028
:100CE0006062012084F82000002070BD2068016847
:100CF00041F080010160BEE72068016841F04001D9
:100D00000160C0E72068016841F020010160C2E78E
:100D10002068016821F010010160C4E720680168C3
:100D200041F008010160C6E72068016841F0040154
:100D30000160C8E710B586B00446142101A8FFF78A
:100D40000AFB1F492068884237D100BF002000906D
:100D50001C48006840F000701A49086008460068A6
:100D600000F00070009000BF00BF00BF00200090A6
:100D700014481038006840F0080012491039086023
:100D80000846006800F00800009000BF00BF032084
:100D9000019002200290002003900320049009207B
:100DA000059001A9084800F04FF900220221142003
:100DB00000F0DCFA142000F0CBFA06B010BD000001
:100DC0000064004040380240000C024070470000C0
:100DD00010B58AB0044601AB03AA00212046FFF7F4
:100DE0000CFD0398972806D0982805D0992804D0A0
:100DF0009A2849D102E000BF00BF00BF039897388E
:100E0000234908700846007800EB8000214931F83A
:100E1000100000B21E49097801EB81011D4A02EB66
:100E2000410108819DF805009DF8041040EA012069
:100E30001749097801EB810122F811009DF807009C
:100E40009DF8061040EA012000B21149097801EB33
:100E5000810102EB410148809DF809009DF80810CE
:100E600040EA012000B20A49097801EB810102EB56
:100E7000410188809DF80A000549097801EB81014C
:100E800002EB4101887100E000BF00BF0AB010BD55
:100E900074000020AC02002070477047704770B5A6
:100EA000044694F82000012805D0606A40F4002030
:100EB0006062012070BD022084F820002068016873
:100EC00021F00101016000F0D5F905462068406875
:100ED00010F0010F12D000F0CDF9401B0A2808D9FC
:100EE000606A40F400306062052084F82000012030
:100EF00070BD2068406810F0010FECD100206062E6
:100F000070BD7047704770477047704770477047B3
:100F100090F83510022903D08021416501207047E7
:100F2000052180F835100068016821F00101016099
:100F3000002070472DE9F041044600F09BF905467A
:100F4000DCB1002684F83460022084F83500206883
:100F5000016821F0010101602068006810F0010FB4
:100F600013D000F087F9401B052809D920206065BF
:100F7000032084F83500BDE8F0810120BDE8F08150
:100F80002068006810F0010FEBD121680868234A3F
:100F90001040A3686268D4F810C01A43E36843EABB
:100FA0000C031A4363691A43A3691A43E3691A439A
:100FB000236A1A431043626A042A03D1236BE26A4C
:100FC0001A43104308602068406920F00701606AF6
:100FD00040EA0105012704280ED1A06A0543E06A12
:100FE00050B12046FFF79EFA30B14020606584F88A
:100FF00035700120BDE8F081206845612046FFF78B
:1010000077FA94F85C103F2202FA01F1816066657C
:1010100084F835700020BDE8F08100003F8010F0BA
:1010200070B5044600F026F90546B4F1FF3F02D042
:1010300004480078044400F01DF9401BA042FAD394
:1010400070BD0000780000202DE9F84F0022DFF885
:101050000082DFF80092DFF800A24FF0030E0F27A6
:10106000012303FA02F50B682B40AB427DD1D1F886
:1010700004C0BCF1020F02D0BCF1120F12D14FEA32
:10108000D20C00EB8C0CDCF820605407E40E07FA5D
:1010900004FB26EA0B06D1F810B00BFA04F4344333
:1010A000CCF8204006684FEA420C0EFA0CF4A64336
:1010B00091F804B00BF0030B0BFA0CFB4BEA06069D
:1010C00006604E68012E05D0022E03D0112E01D0ED
:1010D000122E11D18668A643D1F80CB00BFA0CFB86
:1010E0004BEA06068660466826EA05050E79C6F3D1
:1010F0000016964035434560C56825EA04048D68AE
:1011000005FA0CFC4CEA040CC0F80CC0D1F804C081
:101110001CF0805F7DD0D8F800C04CF4804CC8F83B
:1011200000C0D8F800C00CF4804CCDF800C022F00C
:10113000030C0CF1804404F59834D4F808C89507E2
:101140002D0F07FA05F62CEA0606A0F1804CBCF537
:10115000003C64D0A0F1804CBCF5013C62D0A0F111
:10116000804CBCF5023C60D000E052E0A0F1804C25
:10117000BCF5033C5CD0A0F1804CBCF5043C5AD0DB
:10118000A0F1804CBCF5053C58D0A0F1804CBCF5DA
:10119000063C56D0A0F1804CBCF5073C54D04FF033
:1011A000080C0CFA05FC4CEA060CC4F808C8D9F87F
:1011B00000C02CEA030C4C6814F4803F01D04CEAC8
:1011C000030CC9F800C0254CD4F800C02CEA030C6D
:1011D0004D6815F4003F01D04CEA030CC4F800C080
:1011E000DAF800C02CEA030C4C6814F4801F01D01C
:1011F0004CEA030CCAF800C0194CD4F800C02CEA21
:10120000030C4D6815F4001F01D04CEA030CC4F820
:1012100000C0521C102AFFF423AFBDE8F88F4FF036
:10122000000CBEE74FF0010CBBE74FF0020CB8E733
:101230004FF0030CB5E74FF0040CB2E74FF0050C8C
:10124000AFE74FF0060CACE74FF0070CA9E7000042
:1012500044380240003C0140083C0140043C01404D
:101260000C3C0140002A01D0816170470904816172
:101270007047000001488068704700007800002037
:10128000024881680278114481607047780000202C
:1012900010B50B48016841F400710160016841F428
:1012A00080610160016841F480710160032000F0F9
:1012B00091F8002000F006F800F026F8002010BD9C
:1012C000003C024070B504460D4D4FF47A71287809
:1012D000B1FBF0F00B490968B1FBF0F000F0ACFC99
:1012E00008B1012070BD102C07D200222146501EEB
:1012F00000F03CF86C60002070BD012070BD000063
:10130000780000206000002008B500BF0020009099
:101310000E48006840F480400C49086008460068A8
:1013200000F48040009000BF00BF00BF002000908C
:10133000081F006840F08050091F086008460068D8
:1013400000F08050009000BF00BF08BD443802404C
:1013500000280ADB00F01F01012202FA01F1400916
:10136000800000F1E020C0F80011704710B4184B65
:101370001B68C3F30223C3F1070CBCF1040F01D9AE
:101380004FF0040C1C1D072C01D2002300E0DB1ED3
:10139000012404FA0CFCACF1010C0CEA01019940A7
:1013A00004FA03F35B1E1A401143002806DB00F128
:1013B000E020090180F8001410BC704700F00F0015
:1013C00000F1E020090180F8141D10BC70470000F6
:1013D0000CED00E000F00700064A11684FF6FF032D
:1013E000194041EA002040F0FD7040F0806010603C
:1013F000704700000CED00E02DE9F04704460D4673
:10140000002C13D0DFF85091D9F80000EFB200F0B3
:101410000F00A8420DD289F80070D9F8000000F042
:101420000F00A84205D00120BDE8F0870120BDE8EB
:10143000F0872068494E10F0020F14D010F0040F0E
:1014400003D0306840F4E0503060207810F0080F8E
:1014500003D0306840F4604030603068A16820F00C
:10146000F00008433060207810F0010F3ED0606833
:101470003B49012808D002280DD003280BD0096869
:1014800011F0020F28D00AE0096811F4003F06D1DC
:101490000120BDE8F087096811F0007F19D031689C
:1014A00021F0030108433060FFF7E4FE8046306816
:1014B000616800F00C00B0EB810F17D041F2883A60
:1014C000FFF7D8FEA0EB0800504508D90320BDE87F
:1014D000F0870120BDE8F0870120BDE8F087306883
:1014E000616800F00C00B0EB810FE9D1D9F8000081
:1014F00000F00F00A8420AD989F80070D9F800005E
:1015000000F00F00A84202D00120BDE8F08720784B
:1015100010F0040F05D03068E16820F4E050084373
:101520003060207810F0080F06D03068216920F470
:10153000604040EAC100306000F03EF83168094A7E
:10154000C1F30311515CC840074908600020FFF750
:10155000B9FE0020BDE8F087003C02400838024098
:1015600000380240CE3800086000002001480068C2
:10157000704700006000002000B5FFF7F7FF044946
:101580000968044AC1F38221515CC84000BD0000D3
:1015900008380240DE38000800B5FFF7E7FF0449CD
:1015A0000968044AC1F34231515CC84000BD0000E3
:1015B00008380240DE38000810B51748006810F0FF
:1015C0000C01164816D0164B042912D0082911D147
:1015D000144C216801F03F02216811F4800F0AD0F9
:1015E0002068C0F38810A0FB03010023FEF73CFE37
:1015F00009E0184610BD21680023C1F38811A1FB42
:101600000001FEF731FE2168C1F30141491C490088
:10161000B0FBF1F010BD0000083802400024F400D7
:10162000001BB700043802402DE9F84F0446002C97
:1016300010D02078FA4D10F0010F64D0F9480168FD
:1016400001F00C0104290DD0006800F00C000828FE
:1016500003D011E00120BDE8F88FF348006810F4D2
:10166000800F09D0286810F4003F4CD06068002833
:1016700049D10120BDE8F88F6068B0F5803F14D0F3
:10168000B0F5A02F16D0286820F480302860286894
:1016900020F480202860606810B3FFF7EBFD064659
:1016A000286810F4003F0ED02DE0286840F4803008
:1016B0002860F0E7286840F480202860286840F41B
:1016C00080302860E7E7FFF7D5FD801B642802D94A
:1016D0000320BDE8F88F286810F4003FF3D012E033
:1016E000FFF7C8FD0646286810F4003F0BD0FFF74F
:1016F000C1FD801B642802D90320BDE8F88F28684B
:1017000010F4003FF3D12078C84F10F0020F4FF0D3
:10171000000856D0C348016811F00C0F15D00068BE
:1017200000F00C00082804D1BF48006810F4800FB6
:101730000BD0E06878B301203860FFF79BFD0646C8
:10174000286810F0020F12D01DE0286810F0020F78
:1017500005D0E068012802D00120BDE8F88F286894
:10176000216920F0F80040EAC100286029E0FFF775
:1017700081FD801B022802D90320BDE8F88F28686C
:1017800010F0020FF3D02868216920F0F80040EA39
:10179000C100286015E0FFE7C7F80080FFF76AFD89
:1017A0000646286810F0020F0BD0FFF763FD801B80
:1017B000022802D90320BDE8F88F286810F0020F34
:1017C000F3D1207810F0080F33D09948DFF86492F5
:1017D0006169B9B101210160FFF74CFD0646D9F8F6
:1017E000000010F0020F24D1FFF744FD801B0228F7
:1017F00002D90320BDE8F88FD9F8000010F0020FDD
:10180000F2D016E0C0F80080FFF734FD0646D9F8A4
:10181000000010F0020F0CD0FFF72CFD801B0228F7
:1018200002D90320BDE8F88FD9F8000010F0020FAC
:10183000F2D1207810F0040F73D04FF00009DFF8D8
:10184000F8A1DAF8000010F0805F0CD1DAF800009F
:1018500040F08050CAF80000DAF8000000F0805034
:1018600000904FF00109DFF8D4B1DBF8000010F46C
:10187000807F1AD1DBF8000040F48070CBF80000C4
:10188000FFF7F8FC0646DBF8000010F4807F0CD16F
:10189000FFF7F0FC801B022802D90320BDE8F88F77
:1018A000DBF8000010F4807FF2D0A068DFF890B180
:1018B000012818D005281DD0DBF8000020F0010019
:1018C000CBF80000DBF8000020F00400CBF80000AB
:1018D000A06838B3FFF7CEFC0646DBF8000010F036
:1018E000020F14D03CE0DBF8000040F00100CBF820
:1018F0000000EDE7DBF8000040F00400CBF800004A
:10190000DBF8000040F00100CBF80000E0E7FFF753
:10191000B1FC811B41F28830814204D90320BDE82B
:10192000F88F26E005E0DBF8000010F0020FEED0A3
:1019300016E0FFF79FFC0646DBF8000010F0020FF0
:101940000ED0FFF797FC811B41F28830814202D90B
:101950000320BDE8F88FDBF8000010F0020FF0D193
:10196000B9F1010F05D1DAF8000020F08050CAF873
:101970000000A069E8B32B49096801F00C010829AF
:101980006BD0022810D0C7F86080FFF773FC0446C4
:10199000286810F0007F5ED0FFF76CFC001B022867
:1019A00055D90320BDE8F88FC7F86080FFF762FCC7
:1019B0000646286810F0007F0BD0FFF75BFC801B09
:1019C000022802D90320BDE8F88F286810F0007FB4
:1019D000F3D1216AE069A26A0843616A4FF0FF33DC
:1019E000890103EB520241EA0241084394F82C10AA
:1019F00000E030E040EA01610B48016001203866F8
:101A0000FFF738FC0446286810F0007F23D1FFF769
:101A100031FC001B022815D90320BDE8F88F1CE01B
:101A200000380240083802400438024000004742B3
:101A3000800E474274380240403802400070004037
:101A400070380240286810F0007FE0D003E028687A
:101A500010F0007FA0D10020DFE70120DDE770B5A6
:101A60000446002C05D00025A56294F8510010B161
:101A700006E0012070BD84F85050204600F030F898
:101A8000022084F851002068016821F040010160C3
:101A9000A168606822690843E168114308436169ED
:101AA0000843218B01F400710843E1690843216A6E
:101AB0000843A16A084321680860A069042101EA7B
:101AC0001040616A0843216848602068C16921F4B8
:101AD0000061C1616565012084F85100002070BD7E
:101AE00010B586B00446142101A8FEF734FC4B491A
:101AF000206888427ED100BF0020009048480068DE
:101B000040F48050464908600846006800F4805060
:101B1000009000BF00BF00BF002000904048143874
:101B2000006840F002003E49143908600846006829
:101B300000F00200009000BF00BF00BF0020009036
:101B40000846006840F0010008600846006800F0A0
:101B50000100009000BF00BF1820019002200290F9
:101B600000200390032004900520059001A92D4832
:101B7000FFF76AFA80200190022002900020039073
:101B8000032004900520059001A92748FFF75CFA7F
:101B90002648274908604FF0C0604860002124486B
:101BA0008160C1604FF48061016100214161816108
:101BB000C1614FF44031016200214162FFF7BAF97F
:101BC00008B1FEF7EFFC00BF1948E064846300BF72
:101BD00016481830174908604FF0C060486040212F
:101BE000144881600021C1604FF4806101610021CF
:101BF000416100E010E08161C1614FF40031016298
:101C000000214162FFF796F908B1FEF7CBFC00BF57
:101C10000848A064846300BF06B010BD00300140D6
:101C20004438024000040240000002404064024088
:101C30000401002064010020401EB0F1807F01D328
:101C4000012070474FF0E0214861044AF0201070F5
:101C500000208861072008610020704723ED00E024
:101C60007047704710B50446002C03D094F83D002F
:101C700010B107E0012010BD002084F83C00204690
:101C800000F00CF8022084F83D00211D206800F0CF
:101C90003DFD012084F83D00002010BD10B586B048
:101CA0000446142101A8FEF756FB1E49206888420D
:101CB00036D100BF002000901B48006840F400307F
:101CC000194908600846006800F40030009000BF21
:101CD00000BF00BF0020009013481438006840F097
:101CE00020001149143908600846006800F02000FF
:101CF000009000BF00BF4020019002200290002011
:101D0000039004900320059001A90848FFF79CF96F
:101D1000002201211920FFF729FB1920FFF718FBEA
:101D200006B010BD00440140443802400014024097
:101D30000168CA6842F00102CA600068816801F067
:101D40000701062903D0016841F00101016000206C
:101D50007047704770B50446206801694FF0000570
:101D600011F0020F17D0C16811F0020F13D0E91E55
:101D70000161012020772068806910F0030F03D0F3
:101D80002046FFF7E6FF05E0204600F09DF82046DC
:101D900000F09BF825772068016911F0040F18D036
:101DA000C16811F0040F14D06FF00401016102202A
:101DB00020772068806910F4407F03D02046FFF729
:101DC000C8FF05E0204600F07FF8204600F07DF8CF
:101DD00025772068016911F0080F18D0C16811F04B
:101DE000080F14D06FF008010161042020772068EB
:101DF000C06910F0030F03D02046FFF7AAFF05E0EB
:101E0000204600F061F8204600F05FF82577206852
:101E1000016911F0100F18D0C16811F0100F14D023
:101E20006FF010010161082020772068C06910F46C
:101E3000407F03D02046FFF78CFF05E0204600F0EE
:101E400043F8204600F041F825772068016911F039
:101E5000010F09D0C16811F0010F05D06FF0010129
:101E60000161204600F032F82068016911F0800F0E
:101E700009D0C16811F0800F05D06FF080010161B9
:101E80002046FFF7EDFE2068016911F0400F09D0F0
:101E9000C16811F0400F05D06FF04001016120468C
:101EA00000F032F82068016911F0200F0BD0C168F2
:101EB00011F0200F07D06FF0200101612046BDE82E
:101EC0007040FFF7CEBE70BD7047704710B5044636
:101ED0000B492068884212D1FF2000F0D7FF094942
:101EE000088800F0C5FF0749888A00F0C1FF05494E
:101EF000488900F0BDFF0349C88B00F0B9FF10BD51
:101F000000440140AC0200207047704710B5044601
:101F100022681068D168526900F00F03002B0AD1C3
:101F200010F0200F07D011F0200F04D02046BDE89C
:101F3000104000F074BC002B6BD002F0010301F4E0
:101F4000907C53EA0C0364D010F0010F06D011F41A
:101F5000807F03D0E36B43F00103E36310F0040FD1
:101F600006D012F0010F03D0E36B43F00203E363EA
:101F700010F0020F06D012F0010F03D0E36B43F014
:101F80000403E36310F0080F06D012F0010F03D032
:101F9000E26B42F00802E263E26B002A2ED010F0FE
:101FA000200F05D011F0200F02D0204600F037FCA2
:101FB00020684069C0F38010E16B11F0080F00D178
:101FC00008B3204600F010FC2068416911F0400F72
:101FD00015D0416921F040014161606B58B1184949
:101FE0000165606BFEF794FF002807D0606B016D00
:101FF000BDE8104008472046FFF787FF10BD204688
:10200000FFF783FF10BD2046FFF77FFF0020E0634E
:1020100010BD10F0800F07D011F0800F04D02046C3
:10202000BDE8104000F0EABD10F0400FF0D011F014
:10203000400FEDD02046BDE8104000F0E3BB0000AB
:10204000D927000870B50446002C04D094F8390054
:10205000002510B106E0012070BD84F838502046FC
:1020600000F022F8242084F839002068C16821F4A7
:102070000051C160204600F021FC2068016921F474
:10208000904101612068416921F02A014161206885
:10209000C16841F40051C160E563202084F8390033
:1020A00084F83A00002070BD10B586B004461421B3
:1020B00001A8FEF750F94D492068884256D100BF6B
:1020C000002000904A48006840F01000484908602D
:1020D0000846006800F01000009000BF00BF00BF7D
:1020E0000020009042481438006840F00200404947
:1020F000143908600846006800F00200009000BF34
:1021000000BF00BF002000900846006840F00100BA
:1021100008600846006800F00100009000BF00BFA2
:10212000802001900220029001200390032004905F
:102130000720059001A92F48FEF786FF4FF4007095
:1021400001900220029001200390032004900720B8
:10215000059001A92848FEF777FF002211462520A7
:10216000FFF704F92520FFF7F3F83CE02349206846
:10217000884238D100BF002000901D48006840F020
:1021800020001B4908600846006800F0200000900D
:1021900000BF00BF00BF0020009015481438006841
:1021A00040F040001249143908600846006800F009
:1021B0004000009000BF00BF4FF484400190022017
:1021C000029001200390032004900820059001A9AB
:1021D0000B48FEF739FF002211464720FFF7C6F8EB
:1021E0004720FFF7B5F806B010BD00000010014011
:1021F0004438024000040240000002400014014044
:102200000018024070472DE9F84304460D469146F8
:102210001E4694F83900202802D00220BDE8F88339
:102220004DB3B9F1000F26D094F83800012825D01D
:10223000012084F838000027E763212084F8390062
:10224000FFF718F88046A4F82490A4F82690E08CB4
:10225000A0B3E08C401EE084A068B0F5805F10D091
:102260004346002280212046009600F0FAFCF0B19F
:102270000320BDE8F8830120BDE8F8830220BDE813
:10228000F8834346002280212046009600F0E9FCB6
:1022900010B10320BDE8F88328882168C0F3080046
:1022A0004860206908B16D1C05E0AD1C03E02168A1
:1022B00015F8010B4860E08C0028CAD14346002283
:1022C00040212046009600F0CCFC10B10320BDE870
:1022D000F883202084F8390084F838700020BDE8A5
:1022E000F883704700BFFEE710B50E480E4908603E
:1022F0000620486000210C488160C1604FF4102125
:1023000001614FF40011416100210176417681762F
:10231000C17601774177FEF759FC08B1FEF742F923
:1023200010BD0000006400408400002008B500BF1C
:10233000002000900E48006840F480000C490860BE
:102340000846006800F48000009000BF00BF002233
:1023500011463A20FFF70AF83A20FEF7F9FF00226B
:1023600011463B20FFF702F83B20FEF7F1FF08BDC6
:102370003038024000B587B0142102A8FDF7EBFF0A
:1023800000BF002001905148006840F040004F49D4
:1023900008600846006800F04000019000BF00BFE0
:1023A00000BF002001900846006840F0020008606D
:1023B0000846006800F00200019000BF00BF00BFA7
:1023C000002001900846006840F0010008600846BF
:1023D000006800F00100019000BF00BF00BF0020B6
:1023E00001900846006840F0080008600846006850
:1023F00000F00800019000BF00BF00BF0020019066
:102400000846006840F0800008600846006800F058
:102410008000019000BF00BF00BF0020019008466F
:10242000006840F0200008600846006800F02000C6
:10243000019000BF00BF00BF002001900846006867
:1024400040F0040008600846006800F004000190B5
:1024500000BF00BF002209151D48FEF703FF01223F
:1024600010211C48FEF7FEFE012211461A48FEF715
:10247000F9FE4FF480600290012003900020049048
:10248000059002A91248FEF7DFFD102002900120FE
:10249000039004900220059002A90E48FEF7D4FD97
:1024A000302002900D4803900120049002A90C48AE
:1024B000FEF7CAFD012002900390049002200590CF
:1024C00002A90548FEF7C0FD07B000BD3038024044
:1024D000001C0240000002400004024000002110E5
:1024E0000008024010B50F480F4908604FF4827091
:1024F000486000210C488160C16002210161012116
:102500004161490281613821C1610021016241625A
:1025100081620A21C162FFF7A2FA08B1FEF742F810
:1025200010BD000000300140AC00002010B50A488A
:102530000A4908604FF47A704860002107488160BA
:1025400042F2D001C160002101618161FFF78AFB85
:1025500008B1FEF727F810BD00440140DC0100205F
:1025600010B50B480B4908604FF4E130486000217A
:1025700008488160C16001610C21416100218161D5
:10258000C161FFF75FFD08B1FEF70CF810BD000058
:10259000001001402C02002010B50B480B490860C8
:1025A0004FF4E1304860002108488160C16001615A
:1025B0000C21416100218161C161FFF743FD08B138
:1025C000FDF7F0FF10BD0000001401406C02002078
:1025D00000BFFEE770477047704710B5FEF750FE2A
:1025E00010BD000000B593B0302107A8FDF7B3FE81
:1025F000142102A8FDF7AFFE00BF0020019024487F
:10260000006840F08050224908600846006800F0E9
:102610008050019000BF00BF00BF002001901D4806
:10262000006840F480401B4908600846006800F4D8
:102630008040019000BF00BF012007900004089077
:1026400002200D9041050E9106210F91A8211091B5
:10265000022111910421129107A8FEF7E5FF08B1AC
:10266000FDF7A0FF0F2002900220039000200490AD
:102670004FF4A05005904FF480500690052102A819
:10268000FEF7BAFE08B1FDF78DFF13B000BD0000E4
:1026900040380240007000401448006840F4700068
:1026A000124908601248006840F0010010490860B3
:1026B00000200F49083108600D4800680D490840A6
:1026C0000B4908600C48091D0860081F006820F4C9
:1026D0008020091F0860002005490C3108604FF078
:1026E00000600249803908607047000088ED00E012
:1026F00000380240FFFFF6FE1030002410B50248FB
:10270000FFF728FB10BD0000DC010020F0B40268D8
:102710002C4B2D4C2D4D2E4EDFF8B8C098420AD0D0
:10272000B0F1804F07D0A04205D0A84203D0B042FC
:1027300001D0604503D122F070024F683A439842BD
:1027400028D0B0F1804F25D0A04223D0A84221D07C
:10275000B0421FD060451DD0A0F18044B4F5A03434
:1027600018D0A0F18044B4F5A23413D0A0F1804475
:10277000B4F5A4340ED0A0F18044B4F5C05409D00F
:10278000A0F18044B4F5E05404D0A0F18044B4F545
:10279000005403D122F44072CC6822434C6922F0E9
:1027A0008002224302608A68C2620A68826298429A
:1027B00001D0604501D10969016301214161F0BC8B
:1027C0007047000000000140000400400008004085
:1027D000000C00400004014010B5806B0021C18551
:1027E000C184FFF792FB10BD0168CA6822F49072A1
:1027F000CA6001684A6922F001024A61202180F81A
:102800003A10704710B50168CA6822F04002CA60E9
:10281000202180F83910FFF764FD002010BD10B5AD
:1028200090F83A10222901D0022010BD8168B1F53C
:10283000805F11D0016919B30168496801F07F0216
:10284000816A4B1C83620A70C18D491E0904090C00
:10285000C1851CD0002010BD816A02693AB10268AE
:102860005268D2B20A80816A491C8162ECE7026830
:102870005268C2F308020A80816A891C8162E3E718
:1028800001684A68816A4B1C83620A70DCE7016850
:10289000CA6822F02002CA600168CA6822F4807205
:1028A000CA6001684A6922F001024A61202180F869
:1028B0003A10FFF7A7FC002010BD00002DE9F04101
:1028C000044620680169E26821F440511143016126
:1028D0002169A068E26908436169114301432068E6
:1028E000C26822F4037222F414421143C1602068CA
:1028F0004169A26921F4407111434161E069BC4A18
:10290000BC49BD4D3226B0F5004F5ED020688842EC
:1029100002D0904240F01281FEF73EFE00EBC00173
:1029200001EB001061688900B0FBF1F7FEF734FE9F
:1029300000EBC00101EB001061688900B0FBF1F011
:10294000A5FB001040096FF01801484307EB800019
:1029500006EB0010A5FB0010400900F0F007FEF7A1
:102960001BFE00EBC00101EB001061688900B0FBA9
:10297000F1F0A5FB0010400907EB0017FEF70CFE75
:1029800000EBC00101EB001061688900B0FBF1F8B9
:10299000FEF702FE00EBC00101EB00106168890048
:1029A000B0FBF1F0A5FB001040096FF0180148439F
:1029B00008EB800006EB0010A5FB00102168C0F3B7
:1029C000431038448860BDE8F0812068884201D017
:1029D000904259D1FEF7E0FD00EBC00101EB001081
:1029E00061684900B0FBF1F0A5FB00104009070148
:1029F000FEF7D2FD00EBC00101EB00106168490059
:102A0000B0FBF1F8FEF7C8FD00EBC00101EB0010D0
:102A100061684900B0FBF1F0A5FB001040096FF0C0
:102A20001801484308EB800006EBC000A5FB00102E
:102A3000400900F0F80007EB4007FEF7ADFD00EBA2
:102A4000C00101EB001061684900B0FBF1F8FEF72E
:102A5000A3FD00EBC00101EB001061684900B0FB71
:102A6000F1F0A5FB001040096FF01801484308EB96
:102A7000800006EBC000A5FB00102168C0F34210E7
:102A800038448860BDE8F081FEF776FD00EBC001B8
:102A900001EB001061684900B0FBF1F0A5FB0010EC
:102AA00040090701FEF768FD00EBC00101EB0010D3
:102AB00061684900B0FBF1F8FEF75EFD00EBC00174
:102AC00001EB001061684900B0FBF1F0A5FB0010BC
:102AD00040096FF01801484308EB800006EBC00086
:102AE000A5FB0010400900F0F80007EB4007FEF7D7
:102AF00043FD00EBC00101EB001061684900B0FB31
:102B0000F1F8FEF739FD00EBC00101EB0010616840
:102B10004900B0FBF1F0A5FB001040096FF018016F
:102B2000484308EB800006EBC000A5FB00102168BD
:102B3000C0F3421038448860BDE8F081FEF71CFD08
:102B400000EBC00101EB001061688900B0FBF1F7F8
:102B5000FEF712FD00EBC00101EB00106168890077
:102B6000B0FBF1F0A5FB001040096FF018014843DD
:102B700007EB800006EB0010A5FB0010400900F0F9
:102B8000F007FEF7F9FC00EBC00101EB00106168F3
:102B90008900B0FBF1F0A5FB0010400907EB00171E
:102BA000FEF7EAFC00EBC00101EB00106168890050
:102BB000B0FBF1F8FEF7E0FC00EBC00101EB001008
:102BC00061688900B0FBF1F0A5FB001040096FF0CF
:102BD0001801484308EB800006EB0010A5FB00102D
:102BE0002168C0F3431038448860BDE8F0810000DC
:102BF00000140140001001401F85EB5190F839107E
:102C0000212901D0022070478168B1F5805F0CD086
:102C1000016A4A1C0262026809785160C18C491E2F
:102C20000904090CC18410D019E0016A02680988FE
:102C3000C1F308015160016919B1016A491C0162BF
:102C4000ECE7016A891C0162E8E70168CA6822F0C2
:102C50008002CA600068C16841F04001C160002084
:102C600070472DE9F0410446069D884617461E46EA
:102C70002068006838EA000020D00020B84227D140
:102C8000B5F1FF3F1CD025B1FEF7F4FA801BA84236
:102C900016D92068C16821F4D071C16020684169EB
:102CA00021F001014161202084F8390084F83A00C4
:102CB000002084F838000320BDE8F0810120DDE722
:102CC0002068006838EA000005D00020B842D7D05C
:102CD0000020BDE8F0810120F8E700001CB549485C
:102CE000FFF714F947480068006800F0200020282A
:102CF00068D1444800684068C0B201909DF8040063
:102D00004149087041480068012857D108460178B8
:102D10003F48404A126881543E480068401C3D4983
:102D200008600846006808286BD13948407838495F
:102D3000097840EA0120384908603548407934492B
:102D4000097940EA0120344948603148C078304967
:102D5000897840EA0120304988602D48C0792C49A3
:102D6000897940EA01202C49C86000200EE02A49F8
:102D700051F82010B1F5004F07DB274951F820101A
:102D8000A1F58031244A42F82010401C0428EEDBD3
:102D9000214CA489644223B21F4C248922B21E4CC8
:102DA000A488644221B21C4C248820B2FDF742FB67
:102DB0000020184908601549086022E001201749E1
:102DC00008601EE00F480068006800F0100010283E
:102DD00012D100BF002000900A48006800680090EF
:102DE000084800684068009000BF00BF05480068C0
:102DF0004068C0B2019004E06FF00F00014909681B
:102E000008601CBD2C0200201E000020580000207D
:102E10001F0000205C0000201C0200205000002049
:102E200010B50248FFF772F810BD00006C020020D8
:102E300000BFFEE700B58BB001200990002007908D
:102E400001200890002001900290039004900690C9
:102E5000059001A90548FDF73BFC0448FEF71FF863
:102E600002210248FDF79FFB0BB000BD840000204B
:102E700001B54FF6FF73022269460348FFF7C3F915
:102E8000BDF8000008BD00002C02002001B54FF67F
:102E9000FF73012269460248FFF7B5F9009808BDA3
:102EA0002C02002002468A4201DD08467047002AB3
:102EB00001DA0020FAE71046F8E7014645F208205B
:102EC000814200DD7047002901DA0020FAE7084658
:102ED000F8E70000FEF7DCF9FFF784FBFFF74AFA9A
:102EE000FFF724FAFFF700FAFFF756FBFFF7FAFAAD
:102EF000FFF71CFBFFF734FBFFF79CFFFE48FEF7D4
:102F000017FF4FF4FA60FEF78BF8FDF7C5FAFB48A0
:102F10000068C06840F02000F8490968C860F748B8
:102F20000068C06840F01000F4490968C860F448BF
:102F30000068C06840F02000F1490968C860F048A6
:102F40000068C06840F01000ED490968C8600023BF
:102F50001A4619461846FDF76DFAEDE3E948006890
:102F60000128FAD10020E7490860E7480078F028F6
:102F700002D10120E5490860E44800680028ECD14E
:102F8000E148007800287DD100BF0120E0490860B9
:102F9000E0480068072850D2DFE800F04F04509E58
:102FA000F4F2F1004FF47A7438E0D948006801284F
:102FB0002CD1D448006848BBD7490968081BFFF7E3
:102FC0007CFF404205B2D4490968081BFFF775FF32
:102FD00006B2D1490968081BFFF76FFF404207B2EC
:102FE000CD490968081BFFF768FF0FFA80F82B46E8
:102FF000324639464046FDF71DFA3220FEF710F8FA
:10300000C5480068001BC449086005E0C248006864
:10301000001BC14908603CE204F57A74BE480068B0
:10302000001BC2D500231A4619461846FDF702FABE
:103030000020B8490860B6490860A4E14FF47A74EA
:103040003AE0B348006801282ED1AE48006858BB6A
:10305000B1490968081BFFF730FF05B2AE4909689E
:10306000081BFFF72AFF404206B2AB490968081B5C
:10307000FFF723FF07B2A8490968081BFFF71DFFE8
:10308000404200E080E10FFA80F82B463246394694
:103090004046FDF7CFF93220FDF7C2FF9E48006899
:1030A000001B9D49086005E09B480068001B9A4989
:1030B0000860D1E304F57A7497480068001BC0D516
:1030C00000231A4619461846FDF7B4F90020914925
:1030D00008608F49086056E14FF47A743FE08C48ED
:1030E0000068012833D18748006878BB8A4909689D
:1030F000081BFFF7E2FE404205B287490968874A8C
:103100001268891A081BFFF7D8FE06B282490968BF
:10311000081BFFF7D2FE404207B27F4909687F4A89
:103120001268891A081BFFF7C8FE0FFA80F82B46B1
:10313000324639464046FDF77DF93220FDF770FFF3
:1031400075480068001B7449086006E0FFE7724894
:103150000068001B704908607EE304F57A746E48CD
:103160000068001BBBD500231A4619461846FDF718
:1031700061F90020674908606549086003E1A2E041
:1031800053E0FFE74FF47A743FE06148006801289C
:1031900033D15C48006878BB5F4909685F4A1268B0
:1031A000891A081BFFF789FE404205B25A4909688F
:1031B000081BFFF782FE06B257490968574A126892
:1031C000891A081BFFF779FE404207B25249096885
:1031D000081BFFF772FE0FFA80F82B46324639467D
:1031E0004046FDF727F93220FDF71AFF4A480068EC
:1031F000001B4949086006E0FFE747480068001BDC
:103200004549086028E304F57A7443480068001BC8
:10321000BBD500231A4619461846FDF70BF90020C6
:103220003C4908603A490860ADE04FF47A743AE0EE
:103230003748006801282ED13248006858BB36490B
:103240000968081BFFF739FE404205B23249096898
:10325000081BFFF732FE404206B22F490968081BDF
:10326000FFF72BFE404207B22B490968081BFFF706
:1032700024FE40420FFA80F82B463246394640463B
:10328000FDF7D8F83220FDF7CBFE23480068001B7D
:103290002149086005E020480068001B1E490860BD
:1032A000DAE204F57A741C480068001BC0D50023DC
:1032B0001A4619461846FDF7BDF800201549086062
:1032C000134908605FE04FF47A744CE010480068DE
:1032D000012840D10B480068E0BB0F490968081B72
:1032E000FFF7EBFD05B20C490968081BFFF7E5FD88
:1032F00006B20949096813E0DC0100202C02002015
:103300006C020020500000201E0000205800002009
:10331000540000204C00002018000020480000202D
:10332000081BFFF7CAFD07B2F9490968081BFFF738
:10333000C4FD0FFA80F82B46324639464046FDF769
:1033400079F83220FDF76CFEF1480068001BF04967
:10335000086006E0FFE7EE480068001BEC490860E3
:103360007AE204F57A74EA480068001BAED50023BF
:103370001A4619461846FDF75DF80020E549086031
:10338000E549086000BF00BFE44800780A2842D140
:10339000E0480068022800D1F7E50120DD49086017
:1033A000DB48046832E0DB480068012829D1DC48AA
:1033B000006830BBDB4801682046FFF773FD4042E0
:1033C00005B2D94801682046FFF76CFD06B2D74820
:1033D00001682046FFF766FD404207B2D448016805
:1033E0002046FFF75FFD0FFA80F82B46324639463C
:1033F0004046FDF71FF8C64804603220FDF710FE76
:1034000002E0C348046027E204F57A7400F03CFA55
:10341000A042C8DA1FE2C14800780B2841D1BD485C
:10342000006800B1B1E50220BA490860B8480468F4
:1034300032E0B8480068022829D1B948006830BB9A
:10344000B84801682046FFF72DFD06B2B64801686E
:103450002046FFF727FD404205B2B44801682046E8
:10346000FFF720FD07B2B24801682046FFF71AFDBA
:1034700040420FFA80F833462A4639464046FCF768
:10348000D9FFA34804603220FDF7CAFD02E0A0483E
:103490000460E1E104F57A7400F0F6F9A042C8DABC
:1034A000D9E19E4800780D2843D10320994908604E
:1034B0009748046838E09748006803282FD1984857
:1034C000006860BB974801682046FFF7EBFC40426C
:1034D00005B295480068974A1268811A2046FFF79E
:1034E000E1FC07B2914801682046FFF7DBFC40424F
:1034F00006B28F4800688F4A1268811A2046FFF78B
:10350000D1FC0FFA80F82B463A4631464046FCF78C
:1035100091FF7F4804603220FDF782FD02E07C4885
:10352000046099E104F57A7400F0AEF9A042C2DAC1
:1035300091E17A4800780C2843D10420754908604D
:103540007348046838E07348006804282FD1744831
:10355000006860BB73480068764A1268811A20468A
:10356000FFF7A0FC40420FFA80F86F480168204640
:10357000FFF798FC07B26D4800686E4A1268811A1E
:103580002046FFF78FFC404205B26948016820469B
:10359000FFF788FC06B243463A4629463046FCF718
:1035A00049FF5B4804603220FDF73AFD02E05848CD
:1035B000046051E104F57A7400F066F9A042C2DAC1
:1035C00049E15648007802283FD10520514908605A
:1035D0004F48046834E04F48006805282BD1504814
:1035E000006840BB4F4801682046FFF75BFC404243
:1035F00005B24D4801682046FFF754FC404206B230
:103600004A4801682046FFF74DFC404207B248484F
:1036100001682046FFF746FC40420FFA80F82B462F
:10362000324639464046FCF705FF394804603220EF
:10363000FDF7F6FC02E0364804600DE104F57A740B
:1036400000F022F9A042C6DA05E1344800780328E8
:103650003BD106202F4908602D48046830E02D48F2
:103660000068062827D12E48006820BB2D48016835
:103670002046FFF717FC05B22B4801682046FFF7EC
:1036800011FC06B2294801682046FFF70BFC07B27F
:10369000274801682046FFF705FC0FFA80F82B4603
:1036A000324639464046FCF7C5FE194804603220D0
:1036B000FDF7B6FC02E016480460CDE004F57A742C
:1036C00000F0E2F8A042CADAC5E014480078082801
:1036D00043D11748006845F2082188422DDA144882
:1036E000006800F57A70124908601048006800F51B
:1036F0007A700E4908600C48006800F57A700A4933
:1037000008600848006800F57A7006490860A2E081
:10371000180000204C000020540000201E00002053
:103720005000002044000020400000203C00002009
:10373000380000204800002091E001229102494811
:10374000FDF790FD4FF4FA70FDF76AFC00224FF48C
:1037500080614448FDF786FD7DE0434800780528F8
:103760002CD142480068002818DD40480068A0F5C8
:103770007A703E4908603E480068A0F57A703C497E
:1037800008603C480068A0F57A703A4908603A48F9
:103790000068A0F57A70384908605CE00122910267
:1037A0003048FDF75FFD4FF4FA70FDF739FC002259
:1037B0004FF480612B48FDF755FD4CE02A48007816
:1037C00007281CD12D48006845F20821884206DAF6
:1037D0002A48006800F57A70284908603BE0012219
:1037E00091022048FDF73EFD4FF4FA70FDF718FCFA
:1037F00000224FF480611B48FDF734FD2BE01A488E
:10380000007804281AD11D480068002806DD1B48EE
:103810000068A0F57A70194908601CE00122910245
:103820001048FDF71FFD4FF4FA70FDF7F9FB002279
:103830004FF480610B48FDF715FD0CE00A48007855
:10384000012808D100231A4619461846FCF7F2FD54
:1038500000200B49086000BF00200A490860FFF7FC
:103860007DBB0000001C02401E000020380000202C
:103870003C000020400000204400002048000020C0
:1038800018000020540000200A4908680A49096805
:10389000814201DD0849086808490968814201DD63
:1038A0000649086806490968814201DD044908683B
:1038B00070470000380000203C000020400000203D
:1038C000440000204FF04070E1EE100A7047000005
:1038D00000000000000001020304060708090000C0
:1038E0000000010203040006101600061016000076
:1038F000103900080000002084000000C401000806
:10390000943900088400002004090000E001000848
:1039100000000000000000000000000000000000A7
:103920000202020202020202000000000000000087
:103930000000000000000000000000000000000087
:1039400000000000085200001027000010270000AF
:1039500010270000102700001027000000000000C2
:103960000000000000000000000000000000000057
:103970000024F4000000000000000000000000002F
:103980000000000000000000010000001000000026
:043990000000000033
:040000050800018965
:00000001FF
